{
  "_format": "hh-sol-artifact-1",
  "contractName": "Lottery",
  "sourceName": "contracts/Lottery.sol",
  "abi": [
    {
      "anonymous": false,
      "inputs": [
        {
          "indexed": false,
          "internalType": "bytes32",
          "name": "message",
          "type": "bytes32"
        }
      ],
      "name": "Log",
      "type": "event"
    },
    {
      "anonymous": false,
      "inputs": [
        {
          "indexed": true,
          "internalType": "address",
          "name": "owner",
          "type": "address"
        },
        {
          "indexed": false,
          "internalType": "uint256",
          "name": "lotteryNo",
          "type": "uint256"
        },
        {
          "indexed": false,
          "internalType": "uint256",
          "name": "ticketNo",
          "type": "uint256"
        },
        {
          "indexed": false,
          "internalType": "uint256",
          "name": "prize",
          "type": "uint256"
        }
      ],
      "name": "PrizeCollected",
      "type": "event"
    },
    {
      "anonymous": false,
      "inputs": [
        {
          "indexed": true,
          "internalType": "address",
          "name": "buyer",
          "type": "address"
        },
        {
          "indexed": false,
          "internalType": "uint256",
          "name": "lotteryNo",
          "type": "uint256"
        },
        {
          "indexed": false,
          "internalType": "uint256",
          "name": "ticketNo",
          "type": "uint256"
        },
        {
          "indexed": false,
          "internalType": "uint8",
          "name": "ticketType",
          "type": "uint8"
        }
      ],
      "name": "TicketBought",
      "type": "event"
    },
    {
      "anonymous": false,
      "inputs": [
        {
          "indexed": true,
          "internalType": "address",
          "name": "owner",
          "type": "address"
        },
        {
          "indexed": false,
          "internalType": "uint256",
          "name": "lotteryNo",
          "type": "uint256"
        },
        {
          "indexed": false,
          "internalType": "uint256",
          "name": "ticketNo",
          "type": "uint256"
        }
      ],
      "name": "TicketLost",
      "type": "event"
    },
    {
      "anonymous": false,
      "inputs": [
        {
          "indexed": true,
          "internalType": "address",
          "name": "buyer",
          "type": "address"
        },
        {
          "indexed": false,
          "internalType": "uint256",
          "name": "lotteryNo",
          "type": "uint256"
        },
        {
          "indexed": false,
          "internalType": "uint256",
          "name": "ticketNo",
          "type": "uint256"
        },
        {
          "indexed": false,
          "internalType": "uint8",
          "name": "ticketType",
          "type": "uint8"
        }
      ],
      "name": "TicketRefunded",
      "type": "event"
    },
    {
      "anonymous": false,
      "inputs": [
        {
          "indexed": true,
          "internalType": "address",
          "name": "buyer",
          "type": "address"
        },
        {
          "indexed": false,
          "internalType": "uint256",
          "name": "lotteryNo",
          "type": "uint256"
        },
        {
          "indexed": false,
          "internalType": "uint256",
          "name": "ticketNo",
          "type": "uint256"
        },
        {
          "indexed": false,
          "internalType": "uint8",
          "name": "ticketType",
          "type": "uint8"
        },
        {
          "indexed": false,
          "internalType": "uint256",
          "name": "randomNumber",
          "type": "uint256"
        },
        {
          "indexed": false,
          "internalType": "bool",
          "name": "validReveal",
          "type": "bool"
        }
      ],
      "name": "TicketRevealed",
      "type": "event"
    },
    {
      "anonymous": false,
      "inputs": [
        {
          "indexed": true,
          "internalType": "uint256",
          "name": "lotteryNo",
          "type": "uint256"
        },
        {
          "indexed": true,
          "internalType": "uint256",
          "name": "ticketNo",
          "type": "uint256"
        },
        {
          "indexed": false,
          "internalType": "uint8",
          "name": "place",
          "type": "uint8"
        },
        {
          "indexed": false,
          "internalType": "uint8",
          "name": "ticketType",
          "type": "uint8"
        },
        {
          "indexed": false,
          "internalType": "uint256",
          "name": "prize",
          "type": "uint256"
        }
      ],
      "name": "TicketWonLottery",
      "type": "event"
    },
    {
      "inputs": [
        {
          "internalType": "bytes32",
          "name": "hashRndNumber",
          "type": "bytes32"
        },
        {
          "internalType": "uint8",
          "name": "ticketType",
          "type": "uint8"
        }
      ],
      "name": "buyTicket",
      "outputs": [],
      "stateMutability": "nonpayable",
      "type": "function"
    },
    {
      "inputs": [
        {
          "internalType": "uint256",
          "name": "lotteryNo",
          "type": "uint256"
        },
        {
          "internalType": "uint256",
          "name": "ticketNo",
          "type": "uint256"
        }
      ],
      "name": "checkIfTicketWon",
      "outputs": [
        {
          "internalType": "uint256",
          "name": "",
          "type": "uint256"
        }
      ],
      "stateMutability": "nonpayable",
      "type": "function"
    },
    {
      "inputs": [
        {
          "internalType": "uint256",
          "name": "lotteryNo",
          "type": "uint256"
        },
        {
          "internalType": "uint256",
          "name": "ticketNo",
          "type": "uint256"
        }
      ],
      "name": "collectTicketPrize",
      "outputs": [],
      "stateMutability": "nonpayable",
      "type": "function"
    },
    {
      "inputs": [
        {
          "internalType": "uint256",
          "name": "ticketNo",
          "type": "uint256"
        }
      ],
      "name": "collectTicketRefund",
      "outputs": [],
      "stateMutability": "nonpayable",
      "type": "function"
    },
    {
      "inputs": [
        {
          "internalType": "uint256",
          "name": "amount",
          "type": "uint256"
        }
      ],
      "name": "depositEther",
      "outputs": [],
      "stateMutability": "payable",
      "type": "function"
    },
    {
      "inputs": [],
      "name": "getBalance",
      "outputs": [
        {
          "internalType": "uint256",
          "name": "",
          "type": "uint256"
        }
      ],
      "stateMutability": "view",
      "type": "function"
    },
    {
      "inputs": [],
      "name": "getCurrentLotteryInPurchase",
      "outputs": [
        {
          "internalType": "uint256",
          "name": "",
          "type": "uint256"
        }
      ],
      "stateMutability": "view",
      "type": "function"
    },
    {
      "inputs": [],
      "name": "getCurrentLotteryInReveal",
      "outputs": [
        {
          "internalType": "uint256",
          "name": "",
          "type": "uint256"
        }
      ],
      "stateMutability": "view",
      "type": "function"
    },
    {
      "inputs": [
        {
          "internalType": "uint256",
          "name": "i",
          "type": "uint256"
        },
        {
          "internalType": "uint256",
          "name": "lotteryNo",
          "type": "uint256"
        }
      ],
      "name": "getIthOwnedTicketNo",
      "outputs": [
        {
          "internalType": "uint256",
          "name": "",
          "type": "uint256"
        },
        {
          "internalType": "uint8",
          "name": "",
          "type": "uint8"
        }
      ],
      "stateMutability": "view",
      "type": "function"
    },
    {
      "inputs": [
        {
          "internalType": "uint256",
          "name": "i",
          "type": "uint256"
        },
        {
          "internalType": "uint256",
          "name": "lotteryNo",
          "type": "uint256"
        }
      ],
      "name": "getIthWinningTicket",
      "outputs": [
        {
          "internalType": "uint256",
          "name": "",
          "type": "uint256"
        },
        {
          "internalType": "uint256",
          "name": "",
          "type": "uint256"
        }
      ],
      "stateMutability": "nonpayable",
      "type": "function"
    },
    {
      "inputs": [
        {
          "internalType": "uint256",
          "name": "lotteryNo",
          "type": "uint256"
        }
      ],
      "name": "getLastOwnedTicketNo",
      "outputs": [
        {
          "internalType": "uint256",
          "name": "",
          "type": "uint256"
        },
        {
          "internalType": "uint8",
          "name": "",
          "type": "uint8"
        }
      ],
      "stateMutability": "view",
      "type": "function"
    },
    {
      "inputs": [
        {
          "internalType": "uint256",
          "name": "unixTime",
          "type": "uint256"
        }
      ],
      "name": "getLotteryNos",
      "outputs": [
        {
          "internalType": "uint256",
          "name": "",
          "type": "uint256"
        },
        {
          "internalType": "uint256",
          "name": "",
          "type": "uint256"
        }
      ],
      "stateMutability": "view",
      "type": "function"
    },
    {
      "inputs": [
        {
          "internalType": "uint8",
          "name": "ticketType",
          "type": "uint8"
        }
      ],
      "name": "getTicketPrice",
      "outputs": [
        {
          "internalType": "uint256",
          "name": "",
          "type": "uint256"
        }
      ],
      "stateMutability": "pure",
      "type": "function"
    },
    {
      "inputs": [
        {
          "internalType": "uint256",
          "name": "lotteryNo",
          "type": "uint256"
        }
      ],
      "name": "getTotalLotteryMoneyCollected",
      "outputs": [
        {
          "internalType": "uint256",
          "name": "",
          "type": "uint256"
        }
      ],
      "stateMutability": "view",
      "type": "function"
    },
    {
      "inputs": [
        {
          "internalType": "uint256",
          "name": "lotteryNo",
          "type": "uint256"
        }
      ],
      "name": "getYieldedAmounts",
      "outputs": [
        {
          "internalType": "uint256[]",
          "name": "",
          "type": "uint256[]"
        }
      ],
      "stateMutability": "nonpayable",
      "type": "function"
    },
    {
      "inputs": [
        {
          "internalType": "uint256",
          "name": "ticketNo",
          "type": "uint256"
        },
        {
          "internalType": "uint256",
          "name": "rndNumber",
          "type": "uint256"
        }
      ],
      "name": "revealRndNumber",
      "outputs": [],
      "stateMutability": "nonpayable",
      "type": "function"
    },
    {
      "inputs": [],
      "name": "startTimeOfContract",
      "outputs": [
        {
          "internalType": "uint256",
          "name": "",
          "type": "uint256"
        }
      ],
      "stateMutability": "view",
      "type": "function"
    },
    {
      "inputs": [
        {
          "internalType": "uint256",
          "name": "amount",
          "type": "uint256"
        }
      ],
      "name": "withdrawEther",
      "outputs": [],
      "stateMutability": "nonpayable",
      "type": "function"
    }
  ],
  "bytecode": "0x60008080556001554260045560c0604052637fffffff608090815263750a93c760a0526200003290600590600262000047565b503480156200004057600080fd5b5062000101565b600183019183908215620000d85791602002820160005b83821115620000a457835183826101000a81548163ffffffff021916908363ffffffff16021790555092602001926004016020816003010492830192600103026200005e565b8015620000d65782816101000a81549063ffffffff0219169055600401602081600301049283019260010302620000a4565b505b50620000e6929150620000ea565b5090565b5b80821115620000e65760008155600101620000eb565b6122af80620001116000396000f3fe6080604052600436106101295760003560e01c806348367d1e116100a55780638ef7c649116100745780639eb76341116100595780639eb763411461032d578063a06cc71a1461034d578063e54778b51461036d57600080fd5b80638ef7c649146102ed5780639c7278ca1461030d57600080fd5b806348367d1e1461026b5780635abcc17b1461028b578063666378aa146102b85780638cfc1445146102d857600080fd5b80632b8bdc00116100fc5780633215fce1116100e15780633215fce1146102205780633a989cfb146102355780633bed33ce1461024b57600080fd5b80632b8bdc00146101c95780632e1fe4501461020057600080fd5b80630f1061321461012e57806312065fe0146101685780631a9cca931461019457806326839f17146101b6575b600080fd5b34801561013a57600080fd5b5061014e61014936600461207a565b61038d565b604080519283526020830191909152015b60405180910390f35b34801561017457600080fd5b50336000908152600360205260409020545b60405190815260200161015f565b3480156101a057600080fd5b506101b46101af3660046120a9565b61041b565b005b6101b46101c436600461207a565b610676565b3480156101d557600080fd5b506101e96101e436600461207a565b610744565b6040805192835260ff90911660208301520161015f565b34801561020c57600080fd5b506101b461021b36600461207a565b6108d0565b34801561022c57600080fd5b50610186610ae1565b34801561024157600080fd5b5061018660045481565b34801561025757600080fd5b506101b461026636600461207a565b610afb565b34801561027757600080fd5b506101e96102863660046120d5565b610c01565b34801561029757600080fd5b506102ab6102a636600461207a565b610dd5565b60405161015f91906120f7565b3480156102c457600080fd5b506101866102d336600461207a565b610f07565b3480156102e457600080fd5b50610186610f7c565b3480156102f957600080fd5b5061018661030836600461213b565b610f9a565b34801561031957600080fd5b506101b46103283660046120d5565b611032565b34801561033957600080fd5b506101b46103483660046120d5565b6112a3565b34801561035957600080fd5b506101866103683660046120d5565b611694565b34801561037957600080fd5b5061014e6103883660046120d5565b6117b5565b6000806004548310156103e75760405162461bcd60e51b815260206004820152601e60248201527f596f7527726520676976696e6720612076657279206f6c6420646174652e000060448201526064015b60405180910390fd5b600062093a80600454856103fb9190612173565b61040591906121a0565b90506104128160016121b4565b94909350915050565b60018160ff1610158015610433575060038160ff1611155b61047f5760405162461bcd60e51b815260206004820152601360248201527f496e76616c6964207469636b657420747970650000000000000000000000000060448201526064016103de565b600061048a82610f9a565b9050806104a33360009081526003602052604090205490565b10156104f15760405162461bcd60e51b815260206004820152601460248201527f496e73756666696369656e742062616c616e636500000000000000000000000060448201526064016103de565b60006104fb610ae1565b6000818152600260205260408120600190810154929350909161051d916121b4565b6040805160808101825233815260ff80881660208084019182528385018b81526000606086018181528a825260028085528883208a84528086529883209751885496518816600160a01b0274ffffffffffffffffffffffffffffffffffffffffff1990971673ffffffffffffffffffffffffffffffffffffffff91909116179590951787559151600180880191909155915195840180549690951660ff1990961695909517909355878452529091018054929350906105db836121cc565b909155505033600090815260036020526040812080548592906105ff908490612173565b9091555050600082815260026020819052604082200180548592906106259084906121b4565b9091555050604080518381526020810183905260ff861681830152905133917fa7c88d762a4988697460b3904231505db5b292a2521c2ed04e8bbe58fca9a976919081900360600190a25050505050565b6000811180156106865750803410155b6106d25760405162461bcd60e51b815260206004820152600e60248201527f496e76616c696420616d6f756e7400000000000000000000000000000000000060448201526064016103de565b33600090815260036020526040812080548392906106f19084906121b4565b90915550600090506107038234612173565b111561074157336108fc6107178334612173565b6040518115909202916000818181858888f1935050505015801561073f573d6000803e3d6000fd5b505b50565b60008060008311801561075e575061075a610ae1565b8311155b6107aa5760405162461bcd60e51b815260206004820152601c60248201527f4c6f747465727920726f756e6420646f6573206e6f742065786973740000000060448201526064016103de565b600083815260026020526040902060010154806107cd5750600093849350915050565b60008481526002602081815260408084208585529091528220015460ff16156107f4575060015b6107fe858361199a565b156108c6576000805b60038160ff161015610866576000878152600260205260409020849060050160ff83166003811061083a5761083a6121e7565b015414156108545761084d8160016121fd565b9150610866565b8061085e81612222565b915050610807565b5060ff8116158015906108ba57506000868152600260205260409020600801610890600183612242565b60ff16600381106108a3576108a36121e7565b602081049091015460ff601f9092166101000a9004165b156108c457600291505b505b9094909350915050565b60006108da610ae1565b90506109168183600091825260026020908152604080842092845291905290205473ffffffffffffffffffffffffffffffffffffffff16331490565b158061093f57506000818152600260208181526040808420868552909152909120015460ff1615155b8061096457506000818152600260209081526040808320858452909152902060010154155b156109d75760405162461bcd60e51b815260206004820152603e60248201527f5573657220646f65736e2774206861766520616e20756e72657665616c65642060448201527f7469636b657420666f72206c6f747465727920696e207075726368617365000060648201526084016103de565b6000818152600260209081526040808320858452909152812054600160a01b900460ff1690610a0582610f9a565b6000848152600260208181526040808420898552808352908420805474ffffffffffffffffffffffffffffffffffffffffff19168155600181018590558301805460ff19169055878452908290520180549293508392909190610a69908490612173565b90915550503360009081526003602052604081208054839290610a8d9084906121b4565b9091555050604080518481526020810186905260ff84169181019190915233907f2b36f41b71487bea417c143dc1f6cdc9b8bbfe61d48883570f47868439a7211a906060015b60405180910390a250505050565b6000610aeb610f7c565b610af69060016121b4565b905090565b60008111610b4b5760405162461bcd60e51b815260206004820152600e60248201527f496e76616c696420616d6f756e7400000000000000000000000000000000000060448201526064016103de565b80610b623360009081526003602052604090205490565b1015610bb05760405162461bcd60e51b815260206004820152601460248201527f496e73756666696369656e742062616c616e636500000000000000000000000060448201526064016103de565b3360009081526003602052604081208054839290610bcf908490612173565b9091555050604051339082156108fc029083906000818181858888f1935050505015801561073f573d6000803e3d6000fd5b600080600083118015610c1b5750610c17610ae1565b8311155b610c675760405162461bcd60e51b815260206004820152601c60248201527f4c6f747465727920726f756e6420646f6573206e6f742065786973740000000060448201526064016103de565b600084118015610c8857506000838152600260205260409020600101548411155b610cd45760405162461bcd60e51b815260206004820152601460248201527f496e76616c6964207469636b657420696e64657800000000000000000000000060448201526064016103de565b60008381526002602081815260408084208885529091528220015460ff1615610cfb575060015b610d05848661199a565b15610dcd576000805b60038160ff161015610d6d576000868152600260205260409020879060050160ff831660038110610d4157610d416121e7565b01541415610d5b57610d548160016121fd565b9150610d6d565b80610d6581612222565b915050610d0e565b5060ff811615801590610dc157506000858152600260205260409020600801610d97600183612242565b60ff1660038110610daa57610daa6121e7565b602081049091015460ff601f9092166101000a9004165b15610dcb57600291505b505b939492505050565b6060600082118015610df85750610ded8260016121b4565b610df5610f7c565b10155b610e5f5760405162461bcd60e51b815260206004820152603260248201527f5072697a6573206172652064657465726d696e656420616674657220746865206044820152713932bb32b0b61039ba30b3b29032b732399760711b60648201526084016103de565b600082815260026020526040902060050154610e7e57610e7e82611a18565b604080516003808252608082019092526000916020820160608036833701905050905060005b6003811015610f005760008481526002602052604090206009018160038110610ecf57610ecf6121e7565b0154828281518110610ee357610ee36121e7565b602090810291909101015280610ef8816121cc565b915050610ea4565b5092915050565b600080610f12610ae1565b905080831115610f645760405162461bcd60e51b815260206004820152601c60248201527f4c6f747465727920726f756e6420646f6573206e6f742065786973740000000060448201526064016103de565b50506000908152600260208190526040909120015490565b600062093a8060045442610f909190612173565b610af691906121a0565b60008160ff1660011415610fb65750661c6bf526340000919050565b8160ff1660021415610fd05750660e35fa931a0000919050565b8160ff1660031415610fea575066071afd498d0000919050565b60405162461bcd60e51b815260206004820152601360248201527f496e76616c6964207469636b657420747970650000000000000000000000000060448201526064016103de565b60008211801561105357506110488260016121b4565b611050610f7c565b10155b6110ba5760405162461bcd60e51b815260206004820152603260248201527f5072697a6573206172652064657465726d696e656420616674657220746865206044820152713932bb32b0b61039ba30b3b29032b732399760711b60648201526084016103de565b6000828152600260205260409020600501546110d9576110d982611a18565b600082815260026020908152604080832084845290915290205473ffffffffffffffffffffffffffffffffffffffff1633146111575760405162461bcd60e51b815260206004820152601e60248201527f43616c6c6572206973206e6f7420746865207469636b6574206f776e6572000060448201526064016103de565b611161828261199a565b6111a457604080518381526020810183905233917fe7ae167155684459636bfb3f66856055e9843ba3032b310249313d82656f2b3f910160405180910390a25050565b60006111b08383611a54565b6000848152600260205260408120919250906009016111d0600184612242565b60ff16600381106111e3576111e36121e7565b0154336000908152600360205260408120805492935083929091906112099084906121b4565b9091555050600084815260026020526040902060019060080161122c8285612242565b60ff166003811061123f5761123f6121e7565b60208082049092018054931515601f9092166101000a91820260ff909202199093161790915560408051868152918201859052810182905233907f0ab5b8b97eb64d7017e5419c91ff87f3d123995952d9b5e2261599bfba3dad9b90606001610ad3565b60006112ad610f7c565b9050806112fc5760405162461bcd60e51b815260206004820152601a60248201527f52657665616c207374616765206973206e6f742061637469766500000000000060448201526064016103de565b6000818152600260208181526040808420878552909152909120015460ff16600114156113b75760405162461bcd60e51b815260206004820152605660248201527f5469636b657420697320666f72666569742e205573657220617474656d70746560448201527f642072657665616c20616e6420636f756c64206e6f742070726f76696465207460648201527f68652073616d652072616e646f6d206e756d6265722e00000000000000000000608482015260a4016103de565b600081815260026020818152604080842087855290915290912081015460ff1614156114255760405162461bcd60e51b815260206004820152601060248201527f416c72656164792072657665616c65640000000000000000000000000000000060448201526064016103de565b600081815260026020908152604080832086845290915290205473ffffffffffffffffffffffffffffffffffffffff163314158061148057506000818152600260208181526040808420878552909152909120015460ff1615155b806114a557506000818152600260209081526040808320868452909152902060010154155b156115185760405162461bcd60e51b815260206004820152603e60248201527f5573657220646f65736e2774206861766520616e20756e72657665616c65642060448201527f7469636b657420666f72206c6f747465727920696e207075726368617365000060648201526084016103de565b6000818152600260209081526040808320868452825291829020600101548251918201859052339282019290925260600160405160208183030381529060405280519060200120141561161457600081815260026020818152604080842060038101805488189055878552808352818520808501805460ff1916909517909455600401805460018181018355918652838620018890559387905291548251858152918201879052600160a01b900460ff169181019190915260608101849052608081019190915233907fd300efc740c617985ac6c1cdf499a7adbafdf030d0bf3699d383735ad4715ec69060a0015b60405180910390a2505050565b60008181526002602081815260408084208785528252808420928301805460ff1916600117905591548251858152918201879052600160a01b900460ff169181019190915260608101849052608081019190915233907fd300efc740c617985ac6c1cdf499a7adbafdf030d0bf3699d383735ad4715ec69060a001611607565b600080831180156116b657506116ab8360016121b4565b6116b3610f7c565b10155b61171d5760405162461bcd60e51b815260206004820152603260248201527f5072697a6573206172652064657465726d696e656420616674657220746865206044820152713932bb32b0b61039ba30b3b29032b732399760711b60648201526084016103de565b60008381526002602052604090206005015461173c5761173c83611a18565b60008381526002602052604090206003015461175a575060006117af565b611764838361199a565b611770575060006117af565b6000838152600260205260409020600901600161178d8585611a54565b6117979190612242565b60ff16600381106117aa576117aa6121e7565b015490505b92915050565b6000806000831180156117d957506117ce8360016121b4565b6117d6610f7c565b10155b6118405760405162461bcd60e51b815260206004820152603260248201527f5072697a6573206172652064657465726d696e656420616674657220746865206044820152713932bb32b0b61039ba30b3b29032b732399760711b60648201526084016103de565b60008381526002602052604090206005015461185f5761185f83611a18565b60008411801561186f5750600484105b6118bb5760405162461bcd60e51b815260206004820152601c60248201527f496e76616c69642077696e6e696e67207469636b657420696e6465780000000060448201526064016103de565b60008381526002602052604081206005016118d7600187612173565b600381106118e7576118e76121e7565b015490508061195e5760405162461bcd60e51b815260206004820152602a60248201527f4e6f206461746120666f756e6420666f7220676976656e206c6f74746572792060448201527f616e6420706c6163652e0000000000000000000000000000000000000000000060648201526084016103de565b6000848152600260205260409020819060090161197c600188612173565b6003811061198c5761198c6121e7565b015492509250509250929050565b60008215806119a7575081155b156119b4575060006117af565b60005b60038160ff161015611a0e576000848152600260205260409020839060050160ff8316600381106119ea576119ea6121e7565b015414156119fc5760019150506117af565b80611a0681612222565b9150506119b7565b5060009392505050565b60006001546001611a2991906121b4565b90505b818111611a4e57611a3c81611ac1565b80611a46816121cc565b915050611a2c565b50600155565b60008060005b60038160ff161015611ab9576000858152600260205260409020849060050160ff831660038110611a8d57611a8d6121e7565b01541415611aa757611aa08160016121fd565b9150611ab9565b80611ab181612222565b915050611a5a565b509392505050565b6000611acc82611f10565b6000838152600260205260408120600401549192508115611bf957600084815260026020526040902060030154611b04908390612265565b60008581526002602052604081206004018054929350909183908110611b2c57611b2c6121e7565b906000526020600020015490508060026000878152602001908152602001600020600501600060038110611b6257611b626121e7565b01556000858152600260209081526040808320848452909152812054600160a01b900460ff1690611b9586600184611f91565b600088815260026020526040812091925082916009010155604080516001815260ff84166020820152908101829052839088907f3742060799584a3d24e13209bfef36a6eb69e8f8f30038732b2f403f04b28c029060600160405180910390a35050505b60006001831115611d4f576005546000868152600260205260409020600301805463ffffffff90921690911890819055611c34908490612265565b90505b81811415611c5c5780611c49816121cc565b915050828110611c57575060005b611c37565b6000858152600260205260408120600401805483908110611c7f57611c7f6121e7565b906000526020600020015490508060026000888152602001908152602001600020600501600160038110611cb557611cb56121e7565b01556000868152600260208181526040808420858552909152822054600160a01b900460ff169190611ce990889084611f91565b6000898152600260205260409020909150819060090160010155604080516002815260ff84166020820152908101829052839089907f3742060799584a3d24e13209bfef36a6eb69e8f8f30038732b2f403f04b28c029060600160405180910390a35050505b60006002841115611eb6576005546000878152600260205260409020600301805464010000000090920463ffffffff1690911890819055611d91908590612265565b90505b81811480611da157508281145b15611dc35780611db0816121cc565b915050838110611dbe575060005b611d94565b6000868152600260205260408120600401805483908110611de657611de66121e7565b906000526020600020015490508060026000898152602001908152602001600020600501600260038110611e1c57611e1c6121e7565b01556000878152600260209081526040808320848452909152812054600160a01b900460ff1690611e4f88600384611f91565b60008a815260026020819052604090912091925082916009010155604080516003815260ff8416602082015290810182905283908a907f3742060799584a3d24e13209bfef36a6eb69e8f8f30038732b2f403f04b28c029060600160405180910390a35050505b6000868152600260205260409020600b810154600a8201546009909201549091611edf916121b4565b611ee991906121b4565b611ef39086612173565b600096875260026020526040909620600c01959095555050505050565b600081611f1f57506000919050565b6000828152600260208190526040822001548154909190611f419060016121b4565b90505b83811015611f7c576000818152600260205260409020600c0154611f6890836121b4565b915080611f74816121cc565b915050611f44565b50611f88600184612173565b60005592915050565b6000808360011415611fe5578260011415611fb857611fb16002866121a0565b9050612072565b8260021415611fcc57611fb16004866121a0565b8260031415611fe057611fb16008866121a0565b612072565b836002141561202a57826001141561200257611fb16004866121a0565b826002141561201657611fb16008866121a0565b8260031415611fe057611fb16010866121a0565b836003141561207257826001141561204757611fb16008866121a0565b826002141561205b57611fb16010866121a0565b82600314156120725761206f6020866121a0565b90505b949350505050565b60006020828403121561208c57600080fd5b5035919050565b803560ff811681146120a457600080fd5b919050565b600080604083850312156120bc57600080fd5b823591506120cc60208401612093565b90509250929050565b600080604083850312156120e857600080fd5b50508035926020909101359150565b6020808252825182820181905260009190848201906040850190845b8181101561212f57835183529284019291840191600101612113565b50909695505050505050565b60006020828403121561214d57600080fd5b61215682612093565b9392505050565b634e487b7160e01b600052601160045260246000fd5b6000828210156121855761218561215d565b500390565b634e487b7160e01b600052601260045260246000fd5b6000826121af576121af61218a565b500490565b600082198211156121c7576121c761215d565b500190565b60006000198214156121e0576121e061215d565b5060010190565b634e487b7160e01b600052603260045260246000fd5b600060ff821660ff84168060ff0382111561221a5761221a61215d565b019392505050565b600060ff821660ff8114156122395761223961215d565b60010192915050565b600060ff821660ff84168082101561225c5761225c61215d565b90039392505050565b6000826122745761227461218a565b50069056fea26469706673582212205a55900954d31f40bcf6497e8d0b066684319a8859ec89a7165267a239e4c0a264736f6c63430008090033",
  "linkReferences": {},
  "deployedLinkReferences": {}
}